:100000000C942A000C9477070C9411090C94470067
:100010000C9447000C9486070C9447000C944700FE
:100020000C9447000C9447000C9447000C94470034
:100030000C9447000C9447000C9447000C94470024
:100040000C9463070C9447000C9447000C944700F1
:100050000C94470011241FBECFE5D8E0DEBFCDBF12
:1000600011E0A0E6B0E0EEE3F4E102C005900D92ED
:10007000AC39B107D9F711E0ACE9B1E001C01D928C
:10008000A43AB107E1F70E94C6070C941D0A0C942C
:100090000000EF92FF920F931F937B018C0120E0F1
:1000A00030E040E05FE40E94190388238CF0C8012F
:1000B000B70120E030E040E05FE40E94C1010E940F
:1000C00049039B01AC01205030404040504806C0DD
:1000D000C801B7010E9449039B01AC01B901CA01E3
:1000E0001F910F91FF90EF900895A0E0B0E0EBE733
:1000F000F0E00C94E609DC012B01FA019C919230AE
:1001000008F439C1EB018881823008F433C194309E
:1001100069F4843009F02FC111969C91119789815F
:10012000981709F428C1A8E6B0E025C1843009F485
:1001300021C18230A9F4923009F01DC19A01AD01AC
:1001400088E0EA010990AE01E90109929E0181501F
:10015000C1F7E201898111969C918923818308C1AD
:10016000923009F407C112962D903C901397EB0141
:100170008A819B811496AD90BD90CD90DC901797AD
:10018000EC80FD800E811F819101281B390BB90184
:1001900037FF04C066277727621B730B6032710537
:1001A0000CF061C0121613066CF537014801062EDB
:1001B00004C096948794779467940A94D2F721E0C8
:1001C00030E040E050E004C0220F331F441F551FB1
:1001D0006A95D2F721503040404050402E213F21B7
:1001E00040235123211531054105510521F021E01E
:1001F00030E040E050E079018A01E628F72808293C
:1002000019293CC0232BD1F1260E371E350146019A
:10021000062E04C096948794779467940A94D2F734
:1002200021E030E040E050E004C0220F331F441FC3
:10023000551F6A95D2F721503040404050402A2146
:100240003B214C215D21211531054105510521F04E
:1002500021E030E040E050E059016A01A628B728CB
:10026000C828D9280BC0821593052CF01C01AA249C
:10027000BB24650103C0EE24FF24870111969C91E5
:10028000D20111968C91981709F445C0992339F041
:10029000A80197012A193B094C095D0906C0A6016E
:1002A00095012E193F09400B510B57FD08C01182D3
:1002B0003382228224833583468357831DC081E0A5
:1002C00081833382228288279927DC01821B930B4A
:1002D000A40BB50B84839583A683B7830DC0220F2F
:1002E000331F441F551F24833583468357838281E0
:1002F000938101979383828324813581468157813D
:10030000DA01C9010197A109B1098F5F9F4FAF4F72
:10031000BF4328F30BC0918333822282EA0CFB1C7B
:100320000C1D1D1DE482F5820683178383E0808304
:10033000248135814681578157FF1AC0C901AA27F8
:1003400097FDA095BA2F81709070A070B0705695EF
:10035000479537952795822B932BA42BB52B848318
:100360009583A683B7838281938101969383828349
:10037000DF0101C0D201CD01CDB7DEB7E2E10C94BF
:10038000020AA0E2B0E0E7ECF1E00C94F209698324
:100390007A838B839C832D833E834F835887E9E048
:1003A000EE2EF12CEC0EFD1ECE010196B7010E943F
:1003B0003A058E010F5E1F4FCE010596B8010E94CF
:1003C0003A058A8991E089278A8BC701B801AE0175
:1003D000475E5F4F0E9475000E946504A096E6E0AC
:1003E0000C940E0AA0E2B0E0E8EFF1E00C94F20900
:1003F00069837A838B839C832D833E834F835887C5
:10040000F9E0EF2EF12CEC0EFD1ECE010196B701A6
:100410000E943A058E010F5E1F4FCE010596B8016E
:100420000E943A05C701B801AE01475E5F4F0E94C6
:1004300075000E946504A096E6E00C940E0AA0E206
:10044000B0E0E5E2F2E00C94E60969837A838B83FD
:100450009C832D833E834F835887CE010196BE0136
:10046000675F7F4F0E943A05CE010596BE016F5E21
:100470007F4F0E943A059985923088F089898230B1
:10048000C8F0943019F4823051F404C0843029F457
:10049000923081F488E690E0C6C0923049F420E0C2
:1004A0009A858A89981321E02A87CE010996BBC0D4
:1004B000823049F420E09A858A89981321E02A8BBA
:1004C000CE014196B0C02D843E844F8458886D88FB
:1004D0007E888F88988CEE24FF248701AA24BB2471
:1004E000650140E050E060E070E0E0E0F0E0C10174
:1004F00081709070892BE9F0E60CF71C081D191D1E
:100500009A01AB012A0D3B1D4C1D5D1D80E090E062
:10051000A0E0B0E0E614F7040805190520F481E036
:1005200090E0A0E0B0E0BA01A901480F591F6A1F8E
:100530007B1FAA0CBB1CCC1CDD1C97FE08C081E0F5
:1005400090E0A0E0B0E0A82AB92ACA2ADB2A3196B6
:10055000E032F10549F0660C771C881C991C569412
:10056000479437942794C3CFFA85EA892B893C892D
:100570008B859C85280F391F2E5F3F4F17C0CA01FE
:1005800081709070892B61F016950795F794E79428
:1005900080E090E0A0E0B0E8E82AF92A0A2B1B2BC3
:1005A00076956795579547952F5F3F4F77FDE7CF36
:1005B0000CC0440F551F661F771F17FD4160EE0CDE
:1005C000FF1C001F111F21503040403090E05907A0
:1005D00090E0690790E4790760F32B8F3C8FDB0193
:1005E000CA018F779070A070B07080349105A1051A
:1005F000B10561F447FD0AC0E114F10401051105DC
:1006000029F0405C5F4F6F4F7F4F40781A8EFE1786
:1006100011F081E08A8F4D8F5E8F6F8F78A383E01A
:10062000898FCE0149960E946504A096E2E10C9460
:10063000020AA8E1B0E0EFE1F3E00C94F20969836B
:100640007A838B839C832D833E834F83588789E0F5
:10065000E82EF12CEC0EFD1ECE010196B7010E9492
:100660003A058E010F5E1F4FCE010596B8010E941C
:100670003A058985823040F08989823028F0C701A7
:10068000B8010E94B20501C08FEF6896E6E00C94B5
:100690000E0AACE0B0E0EFE4F3E00C94F6096983F5
:1006A0007A838B839C83CE010196BE016B5F7F4F63
:1006B0000E943A058D81823061F1823050F18430A0
:1006C00021F48E81882351F12EC02F81388537FD8A
:1006D00020C06E812F3131051CF06623F9F023C054
:1006E0008EE190E0821B930B29853A854B855C85D2
:1006F00004C056954795379527958A95D2F7662376
:10070000B1F050954095309521953F4F4F4F5F4F39
:100710000EC020E030E040E050E009C02FEF3FEF96
:100720004FEF5FE704C020E030E040E050E8B9015F
:10073000CA012C96E2E00C94120AA8E0B0E0E3EAC9
:10074000F3E00C94EE097B018C01611571058105C4
:10075000910519F482E0898360C083E089838EE18A
:10076000C82ED12CDC82CB82ED82FE820F831887CB
:10077000C801B7010E941604FC013197F7FF3BC086
:10078000222733272E1B3F0B57016801022E04C07E
:10079000D694C794B794A7940A94D2F740E050E057
:1007A00060E070E081E090E0A0E0B0E004C0880F7D
:1007B000991FAA1FBB1F2A95D2F70197A109B1095A
:1007C0008E219F21A023B1230097A105B10521F01F
:1007D00041E050E060E070E04A295B296C297D2906
:1007E0004D835E836F8378878EE190E08E1B9F0B35
:1007F0009C838B8312C0309781F00E2E04C0EE0CC8
:10080000FF1C001F111F0A94D2F7ED82FE820F8396
:100810001887CE1ADF0ADC82CB821A82CE010196BB
:100820000E9465042896EAE00C940A0AEF92FF926F
:100830000F931F937B018C0180E0E81680E0F8069F
:1008400081E0080780E0180788F48FEFE816F104CC
:100850000105110531F028F088E090E0A0E0B0E05B
:1008600017C080E090E0A0E0B0E012C080E0E816A1
:1008700080E0F80680E0080781E0180728F088E1AA
:1008800090E0A0E0B0E004C080E190E0A0E0B0E043
:1008900020E230E040E050E0281B390B4A0B5B0BB4
:1008A00004C016950795F794E7948A95D2F7F70157
:1008B000E059FF4F8081281B310941095109C901C5
:1008C0001F910F91FF90EF900895DF92EF92FF92AA
:1008D0000F931F93FC01E480F58006811781D1807E
:1008E0008081823048F480E090E0A0E1B0E0E82A26
:1008F000F92A0A2B1B2BA5C0843009F49FC0823033
:1009000021F4EE24FF24870105C0E114F104010560
:10091000110519F4E0E0F0E096C0628173819FEF69
:10092000623879070CF05BC022E83FEF261B370BDB
:100930002A3131052CF020E030E040E050E02AC0C0
:10094000B801A701022E04C0769567955795479583
:100950000A94D2F781E090E0A0E0B0E004C0880FF4
:10096000991FAA1FBB1F2A95D2F70197A109B109A8
:100970008E219F21A023B1230097A105B10521F06D
:1009800081E090E0A0E0B0E09A01AB01282B392B88
:100990004A2B5B2BDA01C9018F779070A070B07081
:1009A00080349105A105B10539F427FF09C0205C09
:1009B0003F4F4F4F5F4F04C0215C3F4F4F4F5F4F42
:1009C000E0E0F0E02030A0E03A07A0E04A07A0E431
:1009D0005A0710F0E1E0F0E079018A0127C06038A1
:1009E000710564F5FB01E158FF4FD801C7018F770E
:1009F0009070A070B07080349105A105B10539F4F4
:100A0000E7FE0DC080E490E0A0E0B0E004C08FE31A
:100A100090E0A0E0B0E0E80EF91E0A1F1B1F17FFD0
:100A200005C016950795F794E794319687E01695DB
:100A30000795F794E7948A95D1F705C0EE24FF2433
:100A40008701EFEFF0E06E2F679566276795902F8F
:100A50009F77D794DD24D7948E2F8695492F462BE8
:100A6000582F5D29B701CA011F910F91FF90EF9098
:100A7000DF900895FC01DB01408151812281622FCA
:100A80006F7770E0221F2227221F9381892F880F02
:100A9000822B282F30E0991F9927991F11969C933C
:100AA000119721153105A9F541155105610571050C
:100AB00011F482E037C082E89FEF13969C938E93E7
:100AC00012979A01AB0167E0220F331F441F551F95
:100AD0006A95D1F783E08C930DC0220F331F441F1A
:100AE000551F12968D919C911397019713969C9385
:100AF0008E931297203080E0380780E0480780E42A
:100B0000580758F314962D933D934D935C93179784
:100B100008952F3F310579F441155105610571059F
:100B200019F484E08C93089564FF03C081E08C93F2
:100B300012C01C9210C02F57304013963C932E9336
:100B4000129783E08C9387E0440F551F661F771F31
:100B50008A95D1F7706414964D935D936D937C9351
:100B6000179708951F93DC01FB019C91923008F4C4
:100B700047C08081823008F443C0943051F411960C
:100B80001C91843099F58181682F70E0611B710997
:100B90003FC0843021F0923031F48230B9F181814C
:100BA000882389F12DC011961C9111978230F1F0A4
:100BB00081811817D9F412962D913C911397828157
:100BC00093818217930794F028173907BCF0149685
:100BD0008D919D910D90BC91A02D248135814681F0
:100BE0005781281739074A075B0718F4112341F08A
:100BF0000AC082179307A407B50740F4112319F020
:100C000061E070E005C06FEF7FEF02C060E070E070
:100C1000CB011F9108953E9A86B1866886B9339AB2
:100C200078940895982F883038F487B1807E87B9FA
:100C300087B1892B87B9369A80E090E00895E199D1
:100C4000FECF9FBB8EBB6DBBE29AE19A0895E199FE
:100C5000FECF9FBB8EBBE09A8DB3089587E885BD1C
:100C600080E489BF789414BC08958AB3887F8ABBD6
:100C700084B3806E84BBDA9AD99AD89AAD9AAE9A28
:100C8000AF9A089580E197E2FC013197F1F7AD98B2
:100C9000AE9AAF9A0197F1F7CA9902C021E009C054
:100CA000C99902C024E005C0C89902C027E001C06C
:100CB00020E080E197E2FC013197F1F7AE98AD9A20
:100CC000AF9A0197F1F7CA9902C022E006C0C9990C
:100CD00002C025E002C0C89B28E080E197E2FC0149
:100CE0003197F1F7AF98AD9AAE9A0197F1F7CA999B
:100CF00002C023E006C0C99902C026E002C0C89B1A
:100D000029E0822F0895DB9840ED57E0FA013197F2
:100D1000F1F7969AFA013197F1F798B3907F98BB63
:100D200028B3982F92959F70922B98BB9698FA01B2
:100D30003197F1F7DB98FA013197F1F7969AFA01BA
:100D40003197F1F798B3907F98BB98B38F70982B39
:100D500098BB9698CA010197F1F70895813041F048
:100D6000813058F0823031F0833031F060E005C0DE
:100D7000605C03C0605F01C0605B862F80680E947A
:100D80008306089581E00E9483060895D39A8E9A7F
:100D900087B38F6087BB82E00E94830688E20E944F
:100DA000830680ED97E00197F1F781E00E948306CA
:100DB0008CE00E9483060895DB9A40ED57E0FA012B
:100DC0003197F1F7969AFA013197F1F798B3907F3E
:100DD00098BB28B3982F92959F70922B98BB9698AA
:100DE000FA013197F1F7DB9A969AFA013197F1F708
:100DF00098B3907F98BB98B38F70982B98BB9698B8
:100E0000CA010197F1F70895CF93DF93EC0102C077
:100E10000E94DC0689918823D9F7DF91CF9108954C
:100E2000EF92FF920F931F93DF93CF93CDB7DEB76F
:100E30002A970FB6F894DEBF0FBECDBF9C01009776
:100E400021F480E30E94DC0631C0FE0131968AE085
:100E5000DF011D928A95E9F740E0C9016AE070E080
:100E60000E94D209805D8193C9016AE070E00E940E
:100E7000D2099B014F5F6115710579F74150842FAD
:100E8000992787FD90954F5F8E010F5F1F4F080FC9
:100E9000191F7801E41AF10806C0F80180810E9448
:100EA000DC06015010400E151F05B9F72A960FB643
:100EB000F894DEBF0FBECDBFCF91DF911F910F9190
:100EC000FF90EF9008951F920F920FB60F9211248A
:100ED0008F939F9384B195B19093A1018093A001CA
:100EE0009F918F910F900FBE0F901F9018951F929A
:100EF0000F920FB60F9211248F9381E08093A2017D
:100F00008F910F900FBE0F901F9018951F920F9208
:100F10000FB60F9211242F933F934F935F936F93CC
:100F20007F938F939F93AF93BF93EF93FF938091A2
:100F3000A3018F5F8093A3018F31B9F480E00E94F9
:100F400012066091A0017091A10180E090E00E94E2
:100F50009D0320E93EE34AEF5EE30E941F020E94E8
:100F6000490060939C011092A301FF91EF91BF9102
:100F7000AF919F918F917F916F915F914F913F9131
:100F80002F910F900FBE0F901F901895EF92FF9228
:100F90000F931F93DF93CF93CDB7DEB728970FB68C
:100FA000F894DEBF0FBECDBFDE011196E0E6F0E0A3
:100FB00088E001900D928150E1F7A29AA39A8F9A4E
:100FC0008A98929A8B98939A0E94C6060E94350638
:100FD0000E940B060E942E0685B7846085BF85B7E8
:100FE000877F85BF85B7816085BF85B78D7F85BFCA
:100FF0008BB780648BBF8BB780688BBF8FB78068DF
:101000008FBF83E090E061E20E941F0684E090E0E1
:101010006DE10E941F0683E090E00E942706809306
:101020009D0184E090E00E94270680939E0108ECD9
:1010300010E07E010894E11CF11C85E00E9412067C
:1010400090919C0180919D01891708F05AC0AA9A3D
:10105000AB988091A201882341F5979A0E94C2061D
:1010600080E060E00E94AE06C7010E9404078CE8A1
:1010700091E00E94040780919D0190E00E9410077A
:1010800081E060E00E94AE0680E791E00E940407E4
:1010900080919C0190E00E94100788EE93E0F80197
:1010A0003197F1F70197D9F7B3C0979880E060E0E6
:1010B0000E94AE0680E791E00E94040780919C01A7
:1010C00090E00E94100781E060E00E94AE068CE88C
:1010D00091E00E94040780919D0190E00E9410071A
:1010E00082E991E00E94040780919E0190E00E94B5
:1010F000100784EF91E0F8013197F1F70197D9F7E4
:1011000087C080919E01981708F05AC0AA98AB9AA0
:101110008091A201882341F5979A0E94C20680E03F
:1011200060E00E94AE06C7010E94040782E991E0D8
:101130000E94040780919E0190E00E94100781E0C8
:1011400060E00E94AE0680E791E00E940407809173
:101150009C0190E00E94100788EE93E0F80131971F
:10116000F1F70197D9F754C0979880E060E00E94AA
:10117000AE0680E791E00E94040780919C0190E018
:101180000E94100781E060E00E94AE068CE891E0CA
:101190000E94040780919D0190E00E94100782E95F
:1011A00091E00E94040780919E0190E00E94100748
:1011B00084EF91E0F8013197F1F70197D9F728C052
:1011C000AA98AB98979880E060E00E94AE0680E70E
:1011D00091E00E94040780919C0190E00E9410071A
:1011E00081E060E00E94AE068CE891E00E94040776
:1011F00080919D0190E00E94100782E991E00E9499
:10120000040780919E0190E00E9410071092A201B5
:1012100084EF91E0F8013197F1F7019709F40DCFD0
:10122000F9CF1F920F920FB60F9211240F931F93B5
:101230002F933F934F935F936F937F938F939F93DE
:10124000AF93BF93CF93DF93EF93FF930E94C206B8
:1012500082E08093990180939A010AE011E0C8EC42
:10126000D0E02FC080E060E00E94AE068CE891E004
:101270000E9404070E9442068823E1F30E9442066E
:1012800080939F0190919901923051F4809FC00109
:10129000112480939D011093990188EB9BE00CC071
:1012A0009130D9F760919D01680F60939D0183E0B3
:1012B00090E00E941F0609C0FE013197F1F70197E7
:1012C000D9F780919901882369F680919D0190E07A
:1012D0000E94100788EB9BE028EC30E0F901319781
:1012E000F1F70197D9F70E94C2060AE011E0C8ECB5
:1012F000D0E02FC080E060E00E94AE0682E991E07D
:101300000E9404070E9442068823E1F30E944206DD
:1013100080939F0190919A01923051F4809FC00177
:10132000112480939E0110939A0188EB9BE00CC0DE
:101330009130D9F760919E01680F60939E0184E01F
:1013400090E00E941F0609C0FE013197F1F7019756
:10135000D9F780919A01882369F680919E0190E0E7
:101360000E94100788EB9BE028EC30E0F9013197F0
:10137000F1F70197D9F70E94C206FF91EF91DF9133
:10138000CF91BF91AF919F918F917F916F915F911D
:101390004F913F912F911F910F910F900FBE0F9082
:1013A0001F901895AA1BBB1B51E107C0AA1FBB1FAA
:1013B000A617B70710F0A61BB70B881F991F5A95E1
:1013C000A9F780959095BC01CD0108952F923F9289
:1013D0004F925F926F927F928F929F92AF92BF9245
:1013E000CF92DF92EF92FF920F931F93CF93DF93F1
:1013F000CDB7DEB7CA1BDB0B0FB6F894DEBF0FBE4E
:10140000CDBF09942A88398848885F846E847D849A
:101410008C849B84AA84B984C884DF80EE80FD809C
:101420000C811B81AA81B981CE0FD11D0FB6F89412
:0E143000DEBF0FBECDBFED010895F894FFCFD3
:10143E005761726E696E67000000000000000000C8
:10144E00000102020303030304040404040404045D
:10145E00050505050505050505050505050505052E
:10146E00060606060606060606060606060606060E
:10147E0006060606060606060606060606060606FE
:10148E0007070707070707070707070707070707DE
:10149E0007070707070707070707070707070707CE
:1014AE0007070707070707070707070707070707BE
:1014BE0007070707070707070707070707070707AE
:1014CE00080808080808080808080808080808088E
:1014DE00080808080808080808080808080808087E
:1014EE00080808080808080808080808080808086E
:1014FE00080808080808080808080808080808085E
:10150E00080808080808080808080808080808084D
:10151E00080808080808080808080808080808083D
:10152E00080808080808080808080808080808082D
:10153E00080808080808080808080808080808081D
:10154E0043757272656E742054656D703A00446511
:10155E0073697265642054656D703A00204D415870
:0C156E003A0020204D494E3A00020200D5
:00000001FF
